{
  "contractName": "Home",
  "abi": [
    {
      "constant": true,
      "inputs": [],
      "name": "name",
      "outputs": [
        {
          "name": "",
          "type": "string"
        }
      ],
      "payable": false,
      "stateMutability": "view",
      "type": "function"
    },
    {
      "constant": true,
      "inputs": [
        {
          "name": "",
          "type": "uint256"
        }
      ],
      "name": "mem_addr",
      "outputs": [
        {
          "name": "",
          "type": "address"
        }
      ],
      "payable": false,
      "stateMutability": "view",
      "type": "function"
    },
    {
      "constant": true,
      "inputs": [
        {
          "name": "",
          "type": "uint256"
        }
      ],
      "name": "vote_addr",
      "outputs": [
        {
          "name": "",
          "type": "address"
        }
      ],
      "payable": false,
      "stateMutability": "view",
      "type": "function"
    },
    {
      "constant": true,
      "inputs": [],
      "name": "home_shares",
      "outputs": [
        {
          "name": "",
          "type": "uint256"
        }
      ],
      "payable": false,
      "stateMutability": "view",
      "type": "function"
    },
    {
      "constant": true,
      "inputs": [],
      "name": "total_shares",
      "outputs": [
        {
          "name": "",
          "type": "uint256"
        }
      ],
      "payable": false,
      "stateMutability": "view",
      "type": "function"
    },
    {
      "constant": true,
      "inputs": [],
      "name": "home_account",
      "outputs": [
        {
          "name": "",
          "type": "uint256"
        }
      ],
      "payable": false,
      "stateMutability": "view",
      "type": "function"
    },
    {
      "constant": true,
      "inputs": [],
      "name": "total_val",
      "outputs": [
        {
          "name": "",
          "type": "uint256"
        }
      ],
      "payable": false,
      "stateMutability": "view",
      "type": "function"
    },
    {
      "constant": true,
      "inputs": [
        {
          "name": "",
          "type": "address"
        }
      ],
      "name": "votes",
      "outputs": [
        {
          "name": "typeOf",
          "type": "uint8"
        },
        {
          "name": "result",
          "type": "uint8"
        }
      ],
      "payable": false,
      "stateMutability": "view",
      "type": "function"
    },
    {
      "constant": true,
      "inputs": [
        {
          "name": "",
          "type": "address"
        }
      ],
      "name": "member",
      "outputs": [
        {
          "name": "shares",
          "type": "uint256"
        },
        {
          "name": "mem_type",
          "type": "uint8"
        },
        {
          "name": "usage_percent",
          "type": "uint8"
        },
        {
          "name": "account",
          "type": "uint256"
        }
      ],
      "payable": false,
      "stateMutability": "view",
      "type": "function"
    },
    {
      "inputs": [
        {
          "name": "_name",
          "type": "string"
        },
        {
          "name": "val",
          "type": "uint256"
        },
        {
          "name": "shares",
          "type": "uint256"
        },
        {
          "name": "founder_addr",
          "type": "address"
        },
        {
          "name": "founder_type",
          "type": "uint8"
        },
        {
          "name": "founder_usage",
          "type": "uint8"
        },
        {
          "name": "founder_shares",
          "type": "uint256"
        }
      ],
      "payable": false,
      "stateMutability": "nonpayable",
      "type": "constructor"
    },
    {
      "anonymous": false,
      "inputs": [
        {
          "indexed": false,
          "name": "member",
          "type": "address"
        },
        {
          "indexed": false,
          "name": "member_type",
          "type": "uint8"
        }
      ],
      "name": "newMember",
      "type": "event"
    },
    {
      "anonymous": false,
      "inputs": [
        {
          "indexed": false,
          "name": "homeAddress",
          "type": "address"
        }
      ],
      "name": "homeFinalized",
      "type": "event"
    },
    {
      "constant": false,
      "inputs": [
        {
          "name": "founder_addr",
          "type": "address"
        },
        {
          "name": "founder_type",
          "type": "uint8"
        },
        {
          "name": "founder_usage",
          "type": "uint8"
        },
        {
          "name": "founder_shares",
          "type": "uint256"
        }
      ],
      "name": "addFoundingMember",
      "outputs": [],
      "payable": false,
      "stateMutability": "nonpayable",
      "type": "function"
    },
    {
      "constant": false,
      "inputs": [],
      "name": "finalizeContract",
      "outputs": [],
      "payable": false,
      "stateMutability": "nonpayable",
      "type": "function"
    }
  ],
  "bytecode": "0x60806040526000600460006101000a81548160ff0219169083151502179055503480156200002c57600080fd5b50604051620012ae380380620012ae833981018060405260e08110156200005257600080fd5b8101908080516401000000008111156200006b57600080fd5b828101905060208101848111156200008257600080fd5b8151856001820283011164010000000082111715620000a057600080fd5b50509291906020018051906020019092919080519060200190929190805190602001909291908051906020019092919080519060200190929190805190602001909291905050508660059080519060200190620000ff92919062000516565b5085600681905550846007819055506200012b8484848462000138640100000000026401000000009004565b50505050505050620005c5565b6007548111151515620001b3576040517f08c379a000000000000000000000000000000000000000000000000000000000815260040180806020018281038252601b8152602001807f4e6f7420656e6f7567682073686172657320617661696c61626c65000000000081525060200191505060405180910390fd5b60648260ff161115151562000230576040517f08c379a000000000000000000000000000000000000000000000000000000000815260040180806020018281038252601d8152602001807f25207573616765206d757374206265206c657373207468616e2031303000000081525060200191505060405180910390fd5b60001515600460009054906101000a900460ff161515141515620002e2576040517f08c379a00000000000000000000000000000000000000000000000000000000081526004018080602001828103825260278152602001807f497420697320746f6f206c61746520746f20616464206120666f756e64696e6781526020017f206d656d6265720000000000000000000000000000000000000000000000000081525060400191505060405180910390fd5b60038490806001815401808255809150509060018203906000526020600020016000909192909190916101000a81548173ffffffffffffffffffffffffffffffffffffffff021916908373ffffffffffffffffffffffffffffffffffffffff1602179055505082600260008673ffffffffffffffffffffffffffffffffffffffff1673ffffffffffffffffffffffffffffffffffffffff16815260200190815260200160002060010160006101000a81548160ff02191690836003811115620003a757fe5b021790555080600260008673ffffffffffffffffffffffffffffffffffffffff1673ffffffffffffffffffffffffffffffffffffffff1681526020019081526020016000206000018190555081600260008673ffffffffffffffffffffffffffffffffffffffff1673ffffffffffffffffffffffffffffffffffffffff16815260200190815260200160002060010160016101000a81548160ff021916908360ff1602179055506000600260008673ffffffffffffffffffffffffffffffffffffffff1673ffffffffffffffffffffffffffffffffffffffff168152602001908152602001600020600201819055507ff8f93273d2a1a40600318d3c3ee765904fb9730c7ac301025eaa65e62bc50f528484604051808373ffffffffffffffffffffffffffffffffffffffff1673ffffffffffffffffffffffffffffffffffffffff168152602001826003811115620004fc57fe5b60ff1681526020019250505060405180910390a150505050565b828054600181600116156101000203166002900490600052602060002090601f016020900481019282601f106200055957805160ff19168380011785556200058a565b828001600101855582156200058a579182015b82811115620005895782518255916020019190600101906200056c565b5b5090506200059991906200059d565b5090565b620005c291905b80821115620005be576000816000905550600101620005a4565b5090565b90565b610cd980620005d56000396000f3fe6080604052600436106100af576000357c0100000000000000000000000000000000000000000000000000000000900463ffffffff16806304a14c6b146100b457806306fdde031461012957806308374b10146101b957806316838d5d1461023457806328c5cf0a146102af57806373b323aa146102c65780637678c038146102f1578063a70c69d91461031c578063cdfd134414610347578063d8bff5a514610372578063e7d4539e146103fa575b600080fd5b3480156100c057600080fd5b50610127600480360360808110156100d757600080fd5b81019080803573ffffffffffffffffffffffffffffffffffffffff169060200190929190803560ff169060200190929190803560ff16906020019092919080359060200190929190505050610488565b005b34801561013557600080fd5b5061013e610861565b6040518080602001828103825283818151815260200191508051906020019080838360005b8381101561017e578082015181840152602081019050610163565b50505050905090810190601f1680156101ab5780820380516001836020036101000a031916815260200191505b509250505060405180910390f35b3480156101c557600080fd5b506101f2600480360360208110156101dc57600080fd5b81019080803590602001909291905050506108ff565b604051808273ffffffffffffffffffffffffffffffffffffffff1673ffffffffffffffffffffffffffffffffffffffff16815260200191505060405180910390f35b34801561024057600080fd5b5061026d6004803603602081101561025757600080fd5b810190808035906020019092919050505061093d565b604051808273ffffffffffffffffffffffffffffffffffffffff1673ffffffffffffffffffffffffffffffffffffffff16815260200191505060405180910390f35b3480156102bb57600080fd5b506102c461097b565b005b3480156102d257600080fd5b506102db610b2b565b6040518082815260200191505060405180910390f35b3480156102fd57600080fd5b50610306610b31565b6040518082815260200191505060405180910390f35b34801561032857600080fd5b50610331610b37565b6040518082815260200191505060405180910390f35b34801561035357600080fd5b5061035c610b3d565b6040518082815260200191505060405180910390f35b34801561037e57600080fd5b506103c16004803603602081101561039557600080fd5b81019080803573ffffffffffffffffffffffffffffffffffffffff169060200190929190505050610b43565b604051808360008111156103d157fe5b60ff1681526020018260028111156103e557fe5b60ff1681526020019250505060405180910390f35b34801561040657600080fd5b506104496004803603602081101561041d57600080fd5b81019080803573ffffffffffffffffffffffffffffffffffffffff169060200190929190505050610b81565b6040518085815260200184600381111561045f57fe5b60ff1681526020018360ff1660ff16815260200182815260200194505050505060405180910390f35b6007548111151515610502576040517f08c379a000000000000000000000000000000000000000000000000000000000815260040180806020018281038252601b8152602001807f4e6f7420656e6f7567682073686172657320617661696c61626c65000000000081525060200191505060405180910390fd5b60648260ff161115151561057e576040517f08c379a000000000000000000000000000000000000000000000000000000000815260040180806020018281038252601d8152602001807f25207573616765206d757374206265206c657373207468616e2031303000000081525060200191505060405180910390fd5b60001515600460009054906101000a900460ff16151514151561062f576040517f08c379a00000000000000000000000000000000000000000000000000000000081526004018080602001828103825260278152602001807f497420697320746f6f206c61746520746f20616464206120666f756e64696e6781526020017f206d656d6265720000000000000000000000000000000000000000000000000081525060400191505060405180910390fd5b60038490806001815401808255809150509060018203906000526020600020016000909192909190916101000a81548173ffffffffffffffffffffffffffffffffffffffff021916908373ffffffffffffffffffffffffffffffffffffffff1602179055505082600260008673ffffffffffffffffffffffffffffffffffffffff1673ffffffffffffffffffffffffffffffffffffffff16815260200190815260200160002060010160006101000a81548160ff021916908360038111156106f357fe5b021790555080600260008673ffffffffffffffffffffffffffffffffffffffff1673ffffffffffffffffffffffffffffffffffffffff1681526020019081526020016000206000018190555081600260008673ffffffffffffffffffffffffffffffffffffffff1673ffffffffffffffffffffffffffffffffffffffff16815260200190815260200160002060010160016101000a81548160ff021916908360ff1602179055506000600260008673ffffffffffffffffffffffffffffffffffffffff1673ffffffffffffffffffffffffffffffffffffffff168152602001908152602001600020600201819055507ff8f93273d2a1a40600318d3c3ee765904fb9730c7ac301025eaa65e62bc50f528484604051808373ffffffffffffffffffffffffffffffffffffffff1673ffffffffffffffffffffffffffffffffffffffff16815260200182600381111561084757fe5b60ff1681526020019250505060405180910390a150505050565b60058054600181600116156101000203166002900480601f0160208091040260200160405190810160405280929190818152602001828054600181600116156101000203166002900480156108f75780601f106108cc576101008083540402835291602001916108f7565b820191906000526020600020905b8154815290600101906020018083116108da57829003601f168201915b505050505081565b60038181548110151561090e57fe5b906000526020600020016000915054906101000a900473ffffffffffffffffffffffffffffffffffffffff1681565b60018181548110151561094c57fe5b906000526020600020016000915054906101000a900473ffffffffffffffffffffffffffffffffffffffff1681565b600015156109896000610bcb565b1515141515610a26576040517f08c379a00000000000000000000000000000000000000000000000000000000081526004018080602001828103825260278152602001807f412066696e616c697a6520766f74652068617320616c7265616479206265656e81526020017f206973737565640000000000000000000000000000000000000000000000000081525060400191505060405180910390fd5b60036000815481101515610a3657fe5b9060005260206000200160009054906101000a900473ffffffffffffffffffffffffffffffffffffffff1673ffffffffffffffffffffffffffffffffffffffff163373ffffffffffffffffffffffffffffffffffffffff16141515610b29576040517f08c379a00000000000000000000000000000000000000000000000000000000081526004018080602001828103825260328152602001807f4f6e6c792074686520636f6e74726163742063726561746f722063616e20636181526020017f6c6c20612066696e616c697a6520766f7465000000000000000000000000000081525060400191505060405180910390fd5b565b60085481565b60075481565b60095481565b60065481565b60006020528060005260406000206000915090508060000160009054906101000a900460ff16908060000160019054906101000a900460ff16905082565b60026020528060005260406000206000915090508060000154908060010160009054906101000a900460ff16908060010160019054906101000a900460ff16908060020154905084565b600080600090505b6001805490508160ff161015610ca257826000811115610bef57fe5b60008060018460ff16815481101515610c0457fe5b9060005260206000200160009054906101000a900473ffffffffffffffffffffffffffffffffffffffff1673ffffffffffffffffffffffffffffffffffffffff1673ffffffffffffffffffffffffffffffffffffffff16815260200190815260200160002060000160009054906101000a900460ff166000811115610c8557fe5b1415610c95576001915050610ca8565b8080600101915050610bd3565b50600090505b91905056fea165627a7a72305820f17f2f34d52af13e49028163927d9216a3f5e3890702a88aa470ce56ab18114e0029",
  "source": "pragma solidity ^0.5.0;\n\nimport  {Home_lib as Lib} from \"./home-lib.sol\";\ncontract Home {\n\n  \n\n  mapping(address => Lib.Vote) public votes;\n  address[] public vote_addr;\n\n  mapping(address => Lib.Member) public member;\n  address[] public mem_addr;\n  \n  bool finalized = false;\n\n  string public name;\n  uint public total_val;\n  uint public total_shares;\n\n  //assets owned by Home, in shares of itself and Ether\n  uint public home_shares;\n  uint public home_account;\n\n  \n  event newMember(address member, Lib.Member_Type member_type);\n  event homeFinalized(address homeAddress);\n  \n  //create contract\n  constructor(string memory _name,\n\t      uint val,\n\t      uint shares,\n\t      address founder_addr,\n\t      Lib.Member_Type founder_type,\n\t      uint8 founder_usage,\n\t      uint founder_shares) public {\n    name = _name;\t\t\n    total_val = val;\n    total_shares = shares;\n    addFoundingMember(founder_addr,\n\t\t      founder_type,\n\t\t      founder_usage,\n\t\t      founder_shares);\n  }\n\n  \n  function addFoundingMember(address founder_addr,\n\t\t\t     Lib.Member_Type founder_type,\n\t\t\t     uint8 founder_usage,\n\t\t\t     uint founder_shares) public {\n    require(founder_shares <= total_shares,\n\t    'Not enough shares available');\n    require(founder_usage <= 100,\n\t    '% usage must be less than 100');\n    require(finalized == false,\n\t    'It is too late to add a founding member');\n    \n    mem_addr.push(founder_addr);\n    member[founder_addr].mem_type = founder_type;\n    member[founder_addr].shares = founder_shares;\n    member[founder_addr].usage_percent = founder_usage;\n    member[founder_addr].account = 0;\n\n    emit newMember(founder_addr, founder_type);\n\n  }\n\n  //will check that all conditions are met before changing finalize state\n  function finalizeContract() public {\n\n    require(voteTypeExists(Lib.Vote_Type.Finalize) == false,\n\t    'A finalize vote has already been issued');\n\n    require(msg.sender == mem_addr[0],\n\t    'Only the contract creator can call a finalize vote');\n\n    \n    \n  }\n\n  function voteTypeExists(Lib.Vote_Type typeOf) internal returns (bool){\n\n    for(uint8 i = 0; i<vote_addr.length; i++){\n      if(votes[vote_addr[i]].typeOf == typeOf)\n\treturn true;\n    }\n\n    return false;\n  }\n\n}\n",
  "sourcePath": "/home/z/prj/eth/home/contracts/home.sol",
  "compiler": {
    "name": "solc",
    "version": "0.5.0+commit.1d4f565a.Emscripten.clang"
  },
  "schemaVersion": "3.0.0-beta.2",
  "updatedAt": "2018-12-30T02:59:02.565Z",
  "devdoc": {
    "methods": {}
  },
  "userdoc": {
    "methods": {}
  }
}