{
  "contractName": "Home",
  "abi": [
    {
      "constant": true,
      "inputs": [],
      "name": "name",
      "outputs": [
        {
          "name": "",
          "type": "string"
        }
      ],
      "payable": false,
      "stateMutability": "view",
      "type": "function"
    },
    {
      "constant": true,
      "inputs": [
        {
          "name": "",
          "type": "uint256"
        }
      ],
      "name": "mem_addr",
      "outputs": [
        {
          "name": "",
          "type": "address"
        }
      ],
      "payable": false,
      "stateMutability": "view",
      "type": "function"
    },
    {
      "constant": true,
      "inputs": [],
      "name": "home_shares",
      "outputs": [
        {
          "name": "",
          "type": "uint256"
        }
      ],
      "payable": false,
      "stateMutability": "view",
      "type": "function"
    },
    {
      "constant": true,
      "inputs": [],
      "name": "total_shares",
      "outputs": [
        {
          "name": "",
          "type": "uint256"
        }
      ],
      "payable": false,
      "stateMutability": "view",
      "type": "function"
    },
    {
      "constant": true,
      "inputs": [],
      "name": "home_account",
      "outputs": [
        {
          "name": "",
          "type": "uint256"
        }
      ],
      "payable": false,
      "stateMutability": "view",
      "type": "function"
    },
    {
      "constant": true,
      "inputs": [],
      "name": "total_val",
      "outputs": [
        {
          "name": "",
          "type": "uint256"
        }
      ],
      "payable": false,
      "stateMutability": "view",
      "type": "function"
    },
    {
      "constant": true,
      "inputs": [
        {
          "name": "",
          "type": "address"
        }
      ],
      "name": "member",
      "outputs": [
        {
          "name": "shares",
          "type": "uint256"
        },
        {
          "name": "mem_type",
          "type": "uint8"
        },
        {
          "name": "usage_percent",
          "type": "uint8"
        },
        {
          "name": "account",
          "type": "uint256"
        }
      ],
      "payable": false,
      "stateMutability": "view",
      "type": "function"
    },
    {
      "inputs": [
        {
          "name": "_name",
          "type": "string"
        },
        {
          "name": "val",
          "type": "uint256"
        },
        {
          "name": "shares",
          "type": "uint256"
        },
        {
          "name": "founder_addr",
          "type": "address"
        },
        {
          "name": "founder_type",
          "type": "uint8"
        },
        {
          "name": "founder_usage",
          "type": "uint8"
        },
        {
          "name": "founder_shares",
          "type": "uint256"
        }
      ],
      "payable": false,
      "stateMutability": "nonpayable",
      "type": "constructor"
    },
    {
      "anonymous": false,
      "inputs": [
        {
          "indexed": false,
          "name": "member",
          "type": "address"
        },
        {
          "indexed": false,
          "name": "Member_Type",
          "type": "uint8"
        }
      ],
      "name": "newMember",
      "type": "event"
    },
    {
      "anonymous": false,
      "inputs": [
        {
          "indexed": false,
          "name": "homeAddress",
          "type": "address"
        }
      ],
      "name": "homeFinalized",
      "type": "event"
    },
    {
      "constant": false,
      "inputs": [
        {
          "name": "founder_addr",
          "type": "address"
        },
        {
          "name": "founder_type",
          "type": "uint8"
        },
        {
          "name": "founder_usage",
          "type": "uint8"
        },
        {
          "name": "founder_shares",
          "type": "uint256"
        }
      ],
      "name": "addFoundingMember",
      "outputs": [],
      "payable": false,
      "stateMutability": "nonpayable",
      "type": "function"
    },
    {
      "constant": false,
      "inputs": [],
      "name": "finalizeContract",
      "outputs": [],
      "payable": false,
      "stateMutability": "nonpayable",
      "type": "function"
    }
  ],
  "bytecode": "0x60806040526000600260006101000a81548160ff02191690831515021790555034801561002b57600080fd5b50604051610e71380380610e71833981018060405260e081101561004e57600080fd5b81019080805164010000000081111561006657600080fd5b8281019050602081018481111561007c57600080fd5b815185600182028301116401000000008211171561009957600080fd5b505092919060200180519060200190929190805190602001909291908051906020019092919080519060200190929190805190602001909291908051906020019092919050505086600390805190602001906100f6929190610507565b5085600481905550846005819055506101208484848461012c640100000000026401000000009004565b505050505050506105ac565b60055481111515156101a6576040517f08c379a000000000000000000000000000000000000000000000000000000000815260040180806020018281038252601b8152602001807f4e6f7420656e6f7567682073686172657320617661696c61626c65000000000081525060200191505060405180910390fd5b60648260ff1611151515610222576040517f08c379a000000000000000000000000000000000000000000000000000000000815260040180806020018281038252601d8152602001807f25207573616765206d757374206265206c657373207468616e2031303000000081525060200191505060405180910390fd5b60001515600260009054906101000a900460ff1615151415156102d3576040517f08c379a00000000000000000000000000000000000000000000000000000000081526004018080602001828103825260278152602001807f497420697320746f6f206c61746520746f20616464206120666f756e64696e6781526020017f206d656d6265720000000000000000000000000000000000000000000000000081525060400191505060405180910390fd5b60018490806001815401808255809150509060018203906000526020600020016000909192909190916101000a81548173ffffffffffffffffffffffffffffffffffffffff021916908373ffffffffffffffffffffffffffffffffffffffff160217905550508260ff16600381111561034857fe5b6000808673ffffffffffffffffffffffffffffffffffffffff1673ffffffffffffffffffffffffffffffffffffffff16815260200190815260200160002060010160006101000a81548160ff021916908360038111156103a457fe5b0217905550806000808673ffffffffffffffffffffffffffffffffffffffff1673ffffffffffffffffffffffffffffffffffffffff16815260200190815260200160002060000181905550816000808673ffffffffffffffffffffffffffffffffffffffff1673ffffffffffffffffffffffffffffffffffffffff16815260200190815260200160002060010160016101000a81548160ff021916908360ff16021790555060008060008673ffffffffffffffffffffffffffffffffffffffff1673ffffffffffffffffffffffffffffffffffffffff168152602001908152602001600020600201819055507ff8f93273d2a1a40600318d3c3ee765904fb9730c7ac301025eaa65e62bc50f528484604051808373ffffffffffffffffffffffffffffffffffffffff1673ffffffffffffffffffffffffffffffffffffffff1681526020018260ff1660ff1681526020019250505060405180910390a150505050565b828054600181600116156101000203166002900490600052602060002090601f016020900481019282601f1061054857805160ff1916838001178555610576565b82800160010185558215610576579182015b8281111561057557825182559160200191906001019061055a565b5b5090506105839190610587565b5090565b6105a991905b808211156105a557600081600090555060010161058d565b5090565b90565b6108b6806105bb6000396000f3fe608060405260043610610099576000357c0100000000000000000000000000000000000000000000000000000000900463ffffffff16806304a14c6b1461009e57806306fdde031461011357806308374b10146101a357806328c5cf0a1461021e57806373b323aa146102355780637678c03814610260578063a70c69d91461028b578063cdfd1344146102b6578063e7d4539e146102e1575b600080fd5b3480156100aa57600080fd5b50610111600480360360808110156100c157600080fd5b81019080803573ffffffffffffffffffffffffffffffffffffffff169060200190929190803560ff169060200190929190803560ff1690602001909291908035906020019092919050505061036f565b005b34801561011f57600080fd5b5061012861074a565b6040518080602001828103825283818151815260200191508051906020019080838360005b8381101561016857808201518184015260208101905061014d565b50505050905090810190601f1680156101955780820380516001836020036101000a031916815260200191505b509250505060405180910390f35b3480156101af57600080fd5b506101dc600480360360208110156101c657600080fd5b81019080803590602001909291905050506107e8565b604051808273ffffffffffffffffffffffffffffffffffffffff1673ffffffffffffffffffffffffffffffffffffffff16815260200191505060405180910390f35b34801561022a57600080fd5b50610233610826565b005b34801561024157600080fd5b5061024a610828565b6040518082815260200191505060405180910390f35b34801561026c57600080fd5b5061027561082e565b6040518082815260200191505060405180910390f35b34801561029757600080fd5b506102a0610834565b6040518082815260200191505060405180910390f35b3480156102c257600080fd5b506102cb61083a565b6040518082815260200191505060405180910390f35b3480156102ed57600080fd5b506103306004803603602081101561030457600080fd5b81019080803573ffffffffffffffffffffffffffffffffffffffff169060200190929190505050610840565b6040518085815260200184600381111561034657fe5b60ff1681526020018360ff1660ff16815260200182815260200194505050505060405180910390f35b60055481111515156103e9576040517f08c379a000000000000000000000000000000000000000000000000000000000815260040180806020018281038252601b8152602001807f4e6f7420656e6f7567682073686172657320617661696c61626c65000000000081525060200191505060405180910390fd5b60648260ff1611151515610465576040517f08c379a000000000000000000000000000000000000000000000000000000000815260040180806020018281038252601d8152602001807f25207573616765206d757374206265206c657373207468616e2031303000000081525060200191505060405180910390fd5b60001515600260009054906101000a900460ff161515141515610516576040517f08c379a00000000000000000000000000000000000000000000000000000000081526004018080602001828103825260278152602001807f497420697320746f6f206c61746520746f20616464206120666f756e64696e6781526020017f206d656d6265720000000000000000000000000000000000000000000000000081525060400191505060405180910390fd5b60018490806001815401808255809150509060018203906000526020600020016000909192909190916101000a81548173ffffffffffffffffffffffffffffffffffffffff021916908373ffffffffffffffffffffffffffffffffffffffff160217905550508260ff16600381111561058b57fe5b6000808673ffffffffffffffffffffffffffffffffffffffff1673ffffffffffffffffffffffffffffffffffffffff16815260200190815260200160002060010160006101000a81548160ff021916908360038111156105e757fe5b0217905550806000808673ffffffffffffffffffffffffffffffffffffffff1673ffffffffffffffffffffffffffffffffffffffff16815260200190815260200160002060000181905550816000808673ffffffffffffffffffffffffffffffffffffffff1673ffffffffffffffffffffffffffffffffffffffff16815260200190815260200160002060010160016101000a81548160ff021916908360ff16021790555060008060008673ffffffffffffffffffffffffffffffffffffffff1673ffffffffffffffffffffffffffffffffffffffff168152602001908152602001600020600201819055507ff8f93273d2a1a40600318d3c3ee765904fb9730c7ac301025eaa65e62bc50f528484604051808373ffffffffffffffffffffffffffffffffffffffff1673ffffffffffffffffffffffffffffffffffffffff1681526020018260ff1660ff1681526020019250505060405180910390a150505050565b60038054600181600116156101000203166002900480601f0160208091040260200160405190810160405280929190818152602001828054600181600116156101000203166002900480156107e05780601f106107b5576101008083540402835291602001916107e0565b820191906000526020600020905b8154815290600101906020018083116107c357829003601f168201915b505050505081565b6001818154811015156107f757fe5b906000526020600020016000915054906101000a900473ffffffffffffffffffffffffffffffffffffffff1681565b565b60065481565b60055481565b60075481565b60045481565b60006020528060005260406000206000915090508060000154908060010160009054906101000a900460ff16908060010160019054906101000a900460ff1690806002015490508456fea165627a7a72305820f33c5d993268a0502583fc0d4dd9fac99e5c0ab456510e0cbe5464fa10e00c030029",
  "source": "pragma solidity ^0.5.0;\n\n\ncontract Home {\n  enum Member_Type { \n    Custodian,\n    Inhabitant,\n    Member,\n    Shareholder }\n\n  struct Member {\n    uint shares;\n    Member_Type mem_type;\n    uint8 usage_percent;//percent of Home Member is using\n    uint account;//Ether Home is holding for Member\n  }\n\n  mapping(address => Member) public member;\n  address[] public mem_addr;\n  \n  bool finalized = false;\n\n  string public name;\n  uint public total_val;\n  uint public total_shares;\n\n  //assets owned by Home, in shares of itself and Ether\n  uint public home_shares;\n  uint public home_account;\n\n  event newMember(address member, uint8 Member_Type);\n  event homeFinalized(address homeAddress);\n  \n  //create contract\n  constructor(string memory _name,\n\t      uint val,\n\t      uint shares,\n\t      address founder_addr,\n\t      uint8 founder_type,\n\t      uint8 founder_usage,\n\t      uint founder_shares) public {\n    name = _name;\t\t\n    total_val = val;\n    total_shares = shares;\n    addFoundingMember(founder_addr,\n\t\t      founder_type,\n\t\t      founder_usage,\n\t\t      founder_shares);\n  }\n\n  \n  function addFoundingMember(address founder_addr,\n\t\t\t     uint8 founder_type,\n\t\t\t     uint8 founder_usage,\n\t\t\t     uint founder_shares) public {\n    require(founder_shares <= total_shares,\n\t    'Not enough shares available');\n    require(founder_usage <= 100,\n\t    '% usage must be less than 100');\n    require(finalized == false,\n\t    'It is too late to add a founding member');\n    \n    mem_addr.push(founder_addr);\n    member[founder_addr].mem_type = Member_Type(founder_type);\n    member[founder_addr].shares = founder_shares;\n    member[founder_addr].usage_percent = founder_usage;\n    member[founder_addr].account = 0;\n\n    emit newMember(founder_addr, founder_type);\n\n  }\n\n  //will check that all conditions are met before changing finalize state\n  function finalizeContract() public {\n  }\n\n}\n",
  "sourcePath": "/home/z/prj/eth/home/contracts/home.sol",
  "compiler": {
    "name": "solc",
    "version": "0.5.0+commit.1d4f565a.Emscripten.clang"
  },
  "schemaVersion": "3.0.0-beta.2",
  "updatedAt": "2018-12-24T03:30:41.243Z",
  "devdoc": {
    "methods": {}
  },
  "userdoc": {
    "methods": {}
  }
}